:1020000000800020B5C900003DC900009FC9000044
:1020100000000000000000000000000000000000C0
:102020000000000000000000000000009FC9000048
:1020300000000000000000009FC9000009CA000065
:102040009FC900009FC900009FC900009FC90000F0
:1020500001C900009FC90000255B0000A1C9000064
:102060009FC9000009AB00009FC900009FC9000084
:10207000356200009FC900009FC900009FC9000091
:102080009FC900009FC900009FC900009FC90000B0
:10209000000000009FC900009FC900009FC9000008
:1020A0009FC900009FC900009FC900009FC9000090
:1020B0000000000010B5064C2378002B07D1054B1B
:1020C000002B02D0044800E000BF0123237010BDA4
:1020D000801C00200000000094730100044B10B528
:1020E000002B03D00349044800E000BF10BDC046E8
:1020F00000000000841C0020947301000020704741
:102100007047704770477047037C020000201B0730
:1021100004D5D36A506A181A00D501487047C046E2
:10212000FFFFFF7F10B5103006F0E0FD10BD07B5D2
:102130006B46D971073301221900103006F0D6FD25
:102140000EBD10B5103006F045FA10BD13B56B4644
:10215000DC1D01222100103006F042F9012801D1D6
:10216000207816BD01204042FBE710B5103006F084
:102170007DFB10BDAE2110B5054805F0D4FC054B24
:102180001A79002A03D00449186808F035FD10BDFB
:10219000BC620020541D0020C01B010010B50400CB
:1021A0000069002801D00AF0C5FC6069002801D050
:1021B0000AF0C0FCA069002801D00AF0BBFCE0696D
:1021C000002801D00AF0B6FC206A002801D00AF0ED
:1021D000B1FC200010BD00000B0010B54170047868
:1021E0000749614326246343C91843685918816429
:1021F000002A03D1C36C002B00D0984710BDC04605
:1022000074040000742370B5FF33CB5C05000C0030
:10221000002B13D0CB6E026813700B6F02687731FE
:10222000537003681222981C0EF0C8FD2100286824
:1022300074311222FF3114300EF0C0FD70BDF7B5BD
:1022400004000E00019308AB02CB00681F780AABB4
:102250001D78009204F0DFFF2068ADB23900C5821E
:10226000858204F0D1FF2068009B31000382019B2E
:10227000438208F0A5FCF7BD70B504000D000EF018
:1022800085FD2618B4420ED028000EF07FFD2B00ED
:102290002818834208D001335A1E217812789142BF
:1022A000F7D10023237070BD0134EBE702680438D6
:1022B000030002CB8A4201D24160F8E71A607047FE
:1022C000F8B504000D00884214D00430854211D0C6
:1022D0000600236880CE9F4209D2844204D0021BAC
:1022E0002100201D0EF074F827603000EEE7FFF7A4
:1022F000DDFFFAE7F8BD000070B50D000B4C0100E2
:10230000200008F05DFC2000094908F059FC0A2271
:102310002900200008F0C1FC2000064908F050FC0C
:102320002000054908F068FC70BDC046E46F00203D
:10233000C91B0100CC1B01000A2000201FB501238E
:10234000002202933F33064C019340330093110067
:10235000044B206804F012FD206805F0D1FE1FBD7B
:102360005C1D00207B1F0100F7B506000D000C244A
:102370000127306821B2036800979B6B04341F006B
:102380002AB20E23A4B2B847782CF1D1F7BD70471A
:10239000AF2110B5054805F0C6FB054B1A79002A98
:1023A00003D00449186808F027FC10BDBC62002067
:1023B000541D0020D01B010010B502780023120725
:1023C00004D5C369C91806F035F90300180010BD1B
:1023D0000023FA22436003828374024B92008260DE
:1023E00003607047F41E010000B58BB000230A00A3
:1023F00069468B808B71010001A806F0E7FA0BB0EB
:1024000000BD000030B58BB0002315006A469380F4
:102410009371084A84180A0001A8210006F080FA86
:10242000002804D02A00210001A806F0B3FB0BB05D
:1024300030BDC046440400000822002310B54168A6
:102440008256074851439C0024588C4203D1053BD7
:102450005A43100010BD01330B2BF4D10020F9E7D3
:10246000C452010070B5040000680D0003007C3305
:102470001B78DEB2002B05D0012108F06BF90A2091
:102480000AF006FB0C2120686560AAB208F089F901
:10249000002E06D00A200AF0FBFA0021206808F07E
:1024A00059F970BD0023F0B50E0085B0184D0193A9
:1024B000290030002F1D0EF095FC041E1FD038009F
:1024C0000EF064FC039028000EF060FC2318180046
:1024D00002930EF05BFC039B421C0299E0180DF086
:1024E00077FF38000EF052FC3900020020000DF09A
:1024F00066FF38000EF04AFC29002018DBE7019B3C
:10250000083501330193282BD2D1300005B0F0BD3E
:10251000D0500100F8B505000C007D2110350600F3
:1025200049422800FFF748FF1E222100280005F03D
:1025300057FF00275F21A77728004942FFF73CFF9C
:1025400021001E222800203105F04AFF23004121EE
:102550003E331F7028004942FFF72EFF21001E2244
:102560002800403105F03CFF230023215E331F701B
:1025700028004942FFF720FF210004222800603193
:1025800005F02EFF23001F2164331F7028004942ED
:10259000FFF712FF21001C222800653105F020FF03
:1025A0002300012181331F7028004942FFF704FFF7
:1025B000336830005B69984782342070F8BD0000B2
:1025C000F7B5040008000D000EF0E0FB002304281E
:1025D00007D90438394928180EF080FB434243419B
:1025E000DBB2260027003C3610373370002229006A
:1025F000380006F0F9F93378002B45D02500002388
:1026000036352F4EA3862B70236820005B699847D0
:10261000FF284ED1236820005B699847E0230340E0
:10262000E02B46D10622DA3B0340104241D002079C
:1026300035D403232B70236820005B69984700067C
:10264000030F062058432A781E4B80184000C35AB7
:102650003800A386636AD91E05F0ECFF636AA363A2
:10266000802138004942FFF7A7FE042201A9380063
:1026700005F0B6FE0322144901A80EF08EFB43427A
:10268000584123003D33187023003D331B78002B45
:1026900004D0210020003E31FFF73CFFF7BD042BA2
:1026A00002D12B780133C5E7022B02D12B780233FC
:1026B000C0E7013EB6B2002EA6D1D1E7E41E01006C
:1026C000FFFF000010520100D71B0100F7B58C225C
:1026D00007001F4B0021C518280092000DF08BFE4B
:1026E0003B003E00743301932F233C7C7436FF364D
:1026F0009C4324D03800FF220199103007F04CF899
:10270000144C280021000EF028FB019928000EF03F
:10271000FFFA210028000EF0FBFA38003100FF22FA
:10272000483007F039F8011E04D0310028000EF0BF
:10273000EFFAF7BDFF2230000DF05DFEF9E7FF2252
:10274000210001980DF057FEFF222100F3E7C0465B
:1027500072020000DB1B0100F0B505002F27ADB0B1
:10276000039332AB1B780292019306AE3000FFF761
:102770002FFE02990AAC10310022200006F025F845
:10278000317C002909D1342228000DF034FE2800C4
:10279000FFF71EFE28002DB0F0BD039B0321284A41
:1027A00005A80EF047FA6422200013A906F0F4FFF2
:1027B0003C2204AB9B181A7804AB1B799A420DD1CA
:1027C0003D2204AB9B181A7804AB5B799A4205D181
:1027D000019B002B06D1337CBB431BD0200006F0AD
:1027E00097F8C2E7019B012B02D1337CBB43F5D0A4
:1027F000079B6B60089B0193AB60099BEB602B0010
:10280000103307CC07C307CC07C307CC07C30D4B56
:102810002B60BFE7339B002BEAD013A80EF0B6FA6B
:10282000060033980EF0B2FA8642E1D3301A13ABA9
:10283000339918180EF087FA0028D9D0CEE7C04691
:10284000DD1B0100F41E0100F0B504000E001500B0
:102850009FB0002A04D11E4BC358002B00D09847CC
:102860002200636826670593A36810320693E36825
:10287000079308AB83CA83C383CA83C383CA83C352
:10288000144B11A80493002304AA21000193009380
:102890003300FFF761FF129B15A9E363139B0393BA
:1028A0002364149B63642300483345C945C345C969
:1028B00045C345C945C32000FFF708FF002D05D1DA
:1028C0009623DB00E358002B00D098471FB0F0BDE3
:1028D000AC040000F41E0100F0B504000E00150069
:1028E0009FB0002A04D11E4BC358002B00D098473C
:1028F000676BE66604A8FFF76BFD00233900194AF1
:1029000008A806F063F800230193013304AA11A874
:10291000210000933300FFF71FFF129B15A963608E
:10292000139B0393A360149BE3602300103345C9FA
:1029300045C345C945C345C945C3236F20002A0087
:10294000D9B2FFF781FF2000FFF7C0FE002D05D1AF
:102950009523DB00E358002B00D098471FB0F0BD53
:10296000A4040000DB1B010070B5040015001E006C
:10297000632909D8632A07D81A00FFF7ADFF320090
:1029800029002000FFF760FF70BD10B504000AF0B9
:1029900049F82378A060002B05D000232370236919
:1029A000002B00D0984710BD70B501260C00050023
:1029B000314000790AF0CEFA6110687931400AF0AE
:1029C000C9FAA110A87931400AF0C4FA70BD10B557
:1029D0000400FFF7E9FFE0790AF014FA10BDF0B542
:1029E0000400002585B003912368AB4259DD039BA9
:1029F000AE009B5901930AF015F863699F193B6873
:102A0000C01A636898421CD92369019A5B5D0293DE
:102A100093421CD00AF006F8019B38605A1E93417D
:102A200022695355A3699E1909F0FCFF019B306090
:102A300029002000002B06D1636A9847E369012230
:102A40005A550135D0E7A36A9847236AF7E7029BF6
:102A5000002B12D1E3695B5D002BF2D009F0E2FF9D
:102A6000A3699B59C01AA3689842EAD3E36A290074
:102A700020009847E369029AE2E7236A5B5D002B36
:102A8000DFD009F0CFFFA3699B59C01AE3689842D1
:102A9000D7D3236B2900200098470023226A53557F
:102AA000CFE705B0F0BD70B50400257B0069E37B7E
:102AB000002D19D065698D4210DA4343A360A368E5
:102AC0006168994207D06360002A04D0E369002B53
:102AD00001D0200098470023A37370BD814201DA22
:102AE0006B43EBE74B43E9E71D004D43814201DABD
:102AF00043431D00A560E2E7F8B50323457B0400CE
:102B000000781D400AF052FA002801D004231D432A
:102B100060780AF04BFA002801D008231D4363684F
:102B20000F2D34D828000AF0DDFC0B082C2F2C0BBD
:102B3000320808320B2C2F2C080BA269D3186360C3
:102B40006068A768AD106573B8423BD0C21BD3174D
:102B5000D218E67B5A40A36973439A4232DB3100B4
:102B60000AF054FD227B05002369002A2BD06269FC
:102B700082420FDA1D005E4366606269954224DC82
:102B80000FE0A2699B1ADAE7A2695200D6E7A269B0
:102B90005200F7E79842F0DA5643150066609A4211
:102BA00013DB63689F421DDA0123A373236A002BA2
:102BB00001D0200098476368A360E369002B01D02F
:102BC00020009847F8BD9842D7DA67609D4204DA42
:102BD000E36A002B01D02000984763699D42F1DD34
:102BE000A36AEBE70023A373636AE0E710B50379F8
:102BF000002B02D0006807F0F5FF10BD70B5037917
:102C000004001500002B0BD0006807F0D9FF054920
:102C1000206807F0D5FF0A222900206808F041F853
:102C200070BDC046CD1B010070B5037904001500CE
:102C3000002B0BD0006807F0BFFF0549206807F0A4
:102C4000BFFF0A222900206808F02BF870BDC0469B
:102C5000CD1B010010B50A0002480349FFF7E4FF4D
:102C600010BDC046541D0020E21B010070B51A4B78
:102C70000C001B78194D002B1BD1002913D12B7987
:102C8000174E002B0BD01749286807F095FF1649FF
:102C9000286807F095FF3100286807F0ADFF310084
:102CA000124807F0A1FE280022001149FFF7BCFFDF
:102CB00070BD012BF7D10029F5D100210D4B9B6C84
:102CC00059564A1CEFD05A78C9B223000A48FFF778
:102CD0004BFE0349E4E7C046501B0020541D002072
:102CE0000A200020EE1B0100CD1B0100A01C0020CB
:102CF000E61B0100D4610020981D0020F0B593B0C0
:102D00000193060018AB40690D001F780392FFF78E
:102D10006BFB041E33D0736905A80293FFF758FBC1
:102D200000232A00029909A805F050FE04AB1B7D80
:102D3000002B20D07368002B04D0002F02D1280074
:102D400013499847019A039909A805F049FB019B8B
:102D500098420AD109A805F0DBFDB368002B0BD01F
:102D60000C49002F11D03C0006E033681C1E03D034
:102D70002800094998470024200013B0F0BDB3682B
:102D8000002BF9D0002FF7D1044928009847F3E72A
:102D9000F61B0100941D0100FE1B01000C1C01002C
:102DA00030B50500C1B008000C000DF0EFFF043095
:102DB000FE2807D92B68002B02D020000B4998472A
:102DC00041B030BD210068460DF0C7FF0849684694
:102DD0000DF09EFF69466869FFF706FB0028EFD0FB
:102DE000220069466869FFF70DFBE9E71C1C01003A
:102DF000351C0100F0B5C3B01F00019248AB1E782E
:102E0000037E05000C00002B30D04069FFF7ECFA80
:102E100000282BD020000DF0B9FF0430FE280BD97C
:102E20002B683249002B1ED12B681E1E48D0200073
:102E30002F499847002643E0210002A80DF08DFF9E
:102E40002C4902A80DF064FF2100686902AAFFF76F
:102E5000D9FA686902A9FFF7C7FA002806D12B68DA
:102E6000002BE1D0244920009847DDE76B6902A8D8
:102E70000093FFF7ADFA214B2200009906A805F058
:102E8000A5FD02AB1B7C002B2AD0EB68002B04D0E5
:102E9000002E02D120001A4998473A00019906A84D
:102EA00005F024FFB8420ED106A805F031FD2B69CC
:102EB000002B19D0002E03D120001249984701366B
:102EC000300043B0F0BD06A805F022FD2100280027
:102ED000FFF766FF2B68002B02D020000A499847B5
:102EE00006A805F015FDA5E70126E9E71C1C010071
:102EF0004B1C0100351C01003A1C010001060000BA
:102F00005E1C0100DB1C0100651C010070B50C009B
:102F1000052910D82623017041784B430F494C43B3
:102F20001C1943681C198464002A03D1C36C002B4C
:102F300000D0984770BD036D002BFBD000200849DE
:102F40009847084D21000A22280007F0C0FE0A22F7
:102F50000621280007F0A5FEECE7C0467404000037
:102F6000731C0100E46F002010B51D2902D8FFF783
:102F700033F910BD036D002BFBD0002001499847A9
:102F8000F7E7C046881C0100F0B5534C0E00A5447D
:102F900000250400776B14A8FFF71AFA3900002304
:102FA0004E4A18A805F012FD4D4B07AF01930023C0
:102FB0003100009338002B0014AAFFF7CDFB3B7CB7
:102FC000002B6AD0002229002000FFF79FFF00237A
:102FD00002938C2214AF0023390092000BA805F055
:102FE000C3FA002856D03B78232BF2D0029B1D2B2E
:102FF0004AD80222390005A80DF0E0FE002302AAFB
:103000009373137B303B092BE3D8537B303B092B65
:10301000DFD805A80DF04EF92F21039038000DF0F0
:1030200084FE0222411C06A80DF0C8FE002302AA5D
:103030009374137C303B092BCBD8537C303B092B4A
:10304000C7D806A80DF036F96B46C2B2197B30001E
:103050000023FFF789FC7423FF33F05C00280DD0B8
:10306000002220000299FFF77FFF20003100483046
:10307000FFF7C8F8029B0133DBB2A9E7236D002BF1
:10308000A7D018499847A4E7236D002B02D0002051
:10309000154998470BA805F03BFC0135EDB2062D0C
:1030A00000D077E7002362782370263353436268A9
:1030B000D318A364E36C002B01D0200098470022B2
:1030C00020001100FFF788F80020636D074998473A
:1030D000A1239B009D44F0BD7CFDFFFFDB1B010095
:1030E000991C01009E1C0100BA1C0100CC1C0100AF
:1030F0007422F0B58168FF320300885C002800D19B
:10310000F0BD1A68FA239B01D4181300CD6E002677
:103110009E571800B54204D101260F6F9E57BE423C
:10312000EED04133FF33A342F1D1536A1000002B9C
:10313000E6D04132FF32A242F7D10020E0E70000A2
:10314000F0B58BB0049310AB170004CB09AE1B781D
:103150000C00069312AB1B780500059230000A00A4
:103160000A4907930DF09AFD092C01DC20233370E6
:10317000079B3A000293069B31000193059B2800B0
:103180000093049BFFF75BF80BB0F0BDDD1B010063
:10319000F0B5040089B005930EAB0D0002CB0068BA
:1031A0001E78049204F037F83100206804F02CF8FF
:1031B0006B4614229B5E6A4616271021525E02A9B6
:1031C0007F18122102A8091807AE019106A92068EC
:1031D000009103972900029604F0F4F83B88059AC1
:1031E0005B08D31A32880499206852088A1A02822E
:1031F0002900438207F0E4FC09B0F0BDF7B50026D2
:103200002022040000680D0003680196009231003E
:103210001F6C14328023B84701232900402220006C
:10322000019300963B33FFF7B3FF206804F068FF7B
:10323000F7BD0000F0B5040087B00068059104F008
:103240009EFC2068012103F0DFFFA02301252068F8
:103250001B0303611A4B1C2243614021122300957A
:1032600003F09CF92068242203680095DE6B382166
:103270001023B0472068252203680095DE6B3821B3
:103280001023B04708260F4F20683B001422362138
:1032900002950196009603F071FD3B001422206810
:1032A000422102950196009603F068FD20000599E1
:1032B000FFF7A4FF206804F023FF07B0F0BDC0466D
:1032C00001000100731F0100F7B500262022040051
:1032D00000680D0003680196009231001F6C1432E3
:1032E0008023B84701232900402220000193009643
:1032F0003B33FFF74DFF206804F002FFF7BD0000ED
:10330000F0B5384C0F00A5440024089390AB079209
:1033100004CB77311B780590FF314AAE0AA806939B
:103320000992102534700DF018FD2F490AA80DF0F0
:103330001CFD06AB5B191C545B210AA80DF0F5FCC3
:10334000A04225D029490AA80DF00FFD06AB5B1954
:103350001C54380074305B21FF300DF0E6FC050092
:10336000A04215D001355D2128000DF0DEFCA04201
:103370000ED0441BFE2C00D9FE2422002900300070
:103380000DF01CFD8AAB1C190023013CFF3C23708F
:10339000174F0AA93800FFF785F86B46202201264F
:1033A0001D7F9B181C78069B2A000193099B010036
:1033B0000093059823000296FEF741FF4AA93800C2
:1033C000FFF770F8069A0A34019200220100009279
:1033D00005982A00E3B20296FEF731FF8B239B008B
:1033E0009D44F0BDD4FDFFFFDF1C0100E11C010086
:1033F000E8670020F0B5002610270500006887B0B8
:103400000368019600971C6C0491642331000592B7
:103410003200A047232228683100036800920196F9
:103420001C6C3A008023A0470124049B74331B7852
:103430000294B34227D120220221504B28680197E1
:10344000009703F09BFC4E4F04990294019400975F
:1034500030231E222800C96EFFF772FE302340225F
:1034600028004849029401940097FEF7E8FE3023B3
:10347000502202940194009704992800096FFFF7E5
:103480005FFE07B0F0BD08230322310028680193D6
:1034900000933D4B03F072FC3C4F049938007731A8
:1034A000FFF700F8032301000C2228000294019486
:1034B0000096FEF7C4FE7423049AFF33D35C002BFE
:1034C00006D1334B02940093302301941A00D3E7C2
:1034D000059B3D331A78002A46D0059938003E31C5
:1034E000FEF7E0FF2B4B0100009332002023280061
:1034F00002940194FEF7A3FE05999E310B78002BF0
:1035000011D032002A232800009602940194FEF77D
:1035100096FE00962A231D2228001A49029401943F
:10352000FEF78DFE26260599F6B2A3310C78002C05
:103530000ED03800FEF7B6FF01230293019300235B
:10354000010000932A3332002800FEF778FE98E746
:10355000059938007E31FEF7A5FF01230100029393
:10356000019300942933EEE70A4B28000093049955
:1035700020230194FFF7C4FE83E7C046A323010084
:10358000D4230100DB1B01007B230100E86700203E
:10359000E4230100F4230100F0B587B004930CABE1
:1035A0001B78039205930BB202936B460122040031
:1035B00000680C269E5F036800929B6B0F001D0045
:1035C000320002990323A84701222068049B1500BA
:1035D000591E03680092C91932009F6B0323B84734
:1035E0006B4610215B5E0399206849190A00016847
:1035F0000095CF6B0299B8476B4614215B5E03219F
:103600002068026800910195146C02993200A0476D
:1036100007B0F0BDF0B5002491B0049316AB1B7851
:103620000700059317AB1B78039209934368039E29
:103630005B6F039A0D93836800685B6E0568019465
:10364000059C0693049B0434A41B04335B1A02916B
:103650000094023A02392C6C12B209B2A0476B46B0
:1036600008255D5F6B460C269E5F6B4610229A5EB6
:103670006B46079214229B5E0122386808930899D2
:103680000368019200919B6C32001C002900079B8B
:10369000A04701221400290002233868009232005A
:1036A00003F0A0F90223089A07993868009403F000
:1036B00099F9049B029A9C1A039A059B9B1A18007D
:1036C0000493584323006343C0180CF0D5FC09F061
:1036D000C1FD050004980E000AF08AFE0790200044
:1036E0000AF086FE099B0890002B00D184E0069B1F
:1036F000002B00D180E0FB685B680593002B01D0B4
:1037000004330593310028000CF02EFD011C041C2D
:1037100007980AF05FFA211C0B9008980AF05AFAF1
:1037200000230C900493FB685B68002B64D05B6AF9
:10373000049A9A4260D29300059A98580AF09EFE25
:10374000041C06980AF054FE011C201C0AF042FAE0
:10375000041C02980AF04CFE211C051C08980AF073
:1037600045FB011C281C0AF099F8061C03980AF076
:103770003FFE211C051C07980AF038FB011C281C81
:103780000AF08CF83B685C490A900B9809930AF0A0
:103790002DFB5949051C0C980AF028FB291C041C18
:1037A000301C0AF03DFC0AF003FE211C03B20A980B
:1037B0000E930AF035FC0AF0FBFD291C03B2301C05
:1037C0000F930AF06BF80AF0F3FD099B211C1E68A9
:1037D000012305B20A9801930AF060F80AF0E8FDA7
:1037E00000B200900E9B2900B46C0F9A0998A04774
:1037F000049B0133DBB295E70D9B069A934255D1AA
:103800007C68230058331B78181E049300D0E06EA8
:103810000AF034FE051C06980AF0EAFD011C281C7B
:103820000AF0D8F9061C02980AF0E2FD311C051CCA
:1038300008980AF0DBFA011C281C0AF02FF8051C76
:1038400003980AF0D5FD311C029007980AF0CEFAD1
:10385000011C02980AF022F87C342378061CDAB2A4
:103860000292002B24D1049B002B21D0281C0AF0AB
:103870009FFD04B2301C0AF09BFD029B05B22A009A
:10388000210038680093042302F088FE029B2A007E
:10389000210038680093032302F080FE01232A00F0
:1038A000009321003868DB1803F09CF811B0F0BDDC
:1038B0002378002BFAD0281C0AF07AFD04B2301CC1
:1038C0000AF076FD0123002605B22A00210038689F
:1038D0000093023302F062FE2A00210038680223BE
:1038E000009603F07FF804232A0021003868009630
:1038F00002F054FEDAE7C0460000A040F0B58DB0FB
:103900000A9312AB1B78059000680B9303689B6CBD
:103910001C008BB209936B461E8D93B207936B46C6
:103920009D8D059B5B681B7A7F2B4FD9079B023DC2
:1039300002330693079B0FB25B1908930123089982
:10394000069A019300913B003900A0470122059B94
:103950000B9918684D08079903684D190999019248
:1039600000958E19996C2A000C0033003900A0478D
:103970000122059B08991868036801920091996CCF
:10398000069A0C0033003100A047059B5868FEF7EB
:1039900053FD00280EDD0122089B390000933B00F7
:1039A0000392069A029501960598006803F0EAF8DA
:1039B0000DB0F0BD0028FBD001230393089B31001C
:1039C0000093069A330002950197EDE70127099BC2
:1039D000023E0233089313B20693099B069A9E197E
:1039E000069B0899019700933300A047059B099A0D
:1039F00018680A9BFB40D3181C00079B21005B1929
:103A00000993079B069A5D190368019700959F6CBF
:103A10002300B8470127059B2A0018680899036806
:103A2000019700959F6C3300B847059B5868FEF7D7
:103A300003FD002809DD069B012702932A003300BD
:103A40000397019400950899AEE70028B0D00123B0
:103A50000393099B069A023B1BB20293069B0194B7
:103A600000933300EFE7F7B500244022050000681B
:103A700021000368009201941E6C22000A23B047C3
:103A80000A2701263A0062436B6805321978E3B2CF
:103A9000286812B20096994207D103231900013415
:103AA00002F0A0FF062CEDD1F7BD33000321F6E7AD
:103AB0001FB5836804009B79022B0CD10E22013BB9
:103AC000039321330193183B00930292162100685F
:103AD000123303F057F8A3689B79013B012B0CD8F4
:103AE00001233022039321330193123300931621D3
:103AF00020680292183B03F045F8A3689B79032BDA
:103B00000CD12E22023B03932133019308330093FF
:103B10001621206802920E3B03F034F81FBD00000E
:103B2000F0B543688BB05A78484904921A789D6C76
:103B300051435B6804005B180593049B28005F1CDD
:103B40002623F9B24B430693069A059B9446404AB6
:103B500063440793143004AB09A901269A82FEF747
:103B60008BFB0023A91C2C222000019300930296BA
:103B70001233FEF764FB2900364B2C22200017314C
:103B80000093029628230196FEF759FB20680E2227
:103B900003680096DD6B0A216C23A8472068302259
:103BA000036800960A21DD6B6C23A8472A4B390075
:103BB000009310222423200002960196FFF7C0FAFA
:103BC000049B234F002B1CD119002000FEF7CCFBD7
:103BD000079B002B38D0069D059B14355D192800E6
:103BE00004AB09A99F82FEF747FB01230293002340
:103BF0002C22019300932000E91C3633FEF71FFBB3
:103C000022E0049B5D1E2623EDB25D43059B5B19FC
:103C1000002B12D0059B14355D19280004AB09A9AF
:103C20009F82FEF729FB00232C22019300932000A2
:103C3000E91C02960233FEF702FB049B1D2BC7D141
:103C400030212000FEF790FB0BB0F0BD74040000A3
:103C50002E5B0000F4230100C423010037B50022CD
:103C60004021040000680368019200911D6C363900
:103C70006C23A8472000FFF753FF2000FFF718FF31
:103C800037BD000010B5074B0278074C1A71427817
:103C90002C3420005A71FFF7E6FE2000FFF7DEFF0C
:103CA00010BDC046501B00205C1D0020F0B5012453
:103CB0000500006887B003680094DB6B05911F0066
:103CC0000021802316001822B8472C4B4022009375
:103CD0002800162305990194FFF75AFA284B9E42B3
:103CE0000AD100234022009328002649019424335E
:103CF000FFF74EFA07B0F0BD234B28689E421BD158
:103D0000102622223100214B02940196009603F0E6
:103D100035F81F4B2222382128680294019600961C
:103D200003F02CF81B4B029401960096222260218E
:103D3000286803F023F8DDE7174B02949E4215D163
:103D4000102622223100134B0196009603F016F83C
:103D50000F4B22223821286802940196009603F026
:103D60000DF80A4B029401960096DFE70C230193AD
:103D70000433009324223821084BDAE7C4230100DE
:103D8000E31C0100EB1C0100FD1C0100A32301004A
:103D900083230100A2500100041D01008A5001008C
:103DA00070B505002E48FEF7F0FDE97B686809F064
:103DB0002DFC2C4B04001A78002A23D12A4B1B68B7
:103DC000AB4203D1C1B22948FEF786FD284B1B68E0
:103DD000AB4204D100222548E1B2FEF735FD254B68
:103DE0001B68AB420DD108232348C3565C430534FE
:103DF000E4B20A2C05D8214AA400A1585943FEF781
:103E000031FB70BD012A12D1174B1B68AB4204D1A4
:103E1000C1B200221A48FFF779F8154B1B68AB4274
:103E2000EFD100221648E1B2FFF79EF8E9E7032A36
:103E3000E7D1020013491448FEF7E0FE0A4B1B6865
:103E4000AB42DED10C20114B1C70E4B26043104C2D
:103E500024181048A26861683830FFF727FFD0E7C0
:103E6000D4670020501B0020441B0020981D002018
:103E7000481B00204C1B0020C8610020C4520100D8
:103E8000D46100200C1D0100541D00209C1C00204A
:103E9000040000205C1D002073B50400334D0200B7
:103EA00033492800FEF7AAFE3248FEF76EFD324E77
:103EB000300006F085FC601E0A280BD809F012FBC2
:103EC0000B2F0A3F1D37450A0A4B060030002B49CD
:103ED00006F006FE73BD0025FA23294C294A2A491B
:103EE0009B0120000095FEF785FF0E232000274A46
:103EF00027490095FEF77EFFECE70025FA23204CCA
:103F0000204A21499B0120000095FEF7F7FE0E2371
:103F100020001E4A1E490095FEF7F0FEDAE7002356
:103F20000093FA23174A18499B011548E2E700233A
:103F30000093FA23134A14499B011148ECE700232C
:103F4000124A009312490E33EFE700230F4A009301
:103F50000F490E33F1E701220E4B280019784A4031
:103F60002A710D491A70FEF75FFEB3E7541D002059
:103F7000101D0100D4670020A01C0020181D0100A6
:103F8000B46700204C2200202C1D0100501B002093
:103F90003A1D0100D0670020461D010070B5184B86
:103FA000184C1B78002B08D1174A1849201DFFF721
:103FB00021FA206804F0A4F870BD032B0CD1144B37
:103FC00020001A780C235A43124B38309B189A68F9
:103FD0005968FFF76BFEECE7012B0BD125002C3560
:103FE0002800FFF740FD2800FFF738FEE06A04F0E4
:103FF00087F8DEE7042BDCD1FEF7A0F9D9E7C0464D
:10400000501B00205C1D0020F8600020981D00203F
:104010009C1C002004000020F8B5020004002D497B
:104020002D48FEF701FE002C21D12C4D2C4E2200F4
:10403000F16E2868FEF737FD2A681369632B00DAF2
:104040006323284F5361316F00223868FEF72BFD40
:104050003B681A69632A00DA63225A6101222968DF
:104060000A731A73204B1C70FFF798FFF8BD012CE0
:104070001BD11A4D1D4E002231782868FEF713FD22
:104080002A681369052B00DA05237178154E5361F0
:1040900030680022FEF707FD33681A691D2A00DA2E
:1040A0001D225A6129680022DAE7032CDAD1104B6D
:1040B0000A4D002219782868FEF7F5FC2B681A696A
:1040C000082A00DA08225A6101221A73054B1B687C
:1040D000C7E7C046501D0100541D0020441B0020AE
:1040E000981D0020481B0020501B0020D461002098
:1040F0009C1C002070B50D4D0C002B791600002B78
:104100000BD00100286806F05BFD0949286806F01D
:1041100057FD2100286806F065FD21000548FFF7DE
:10412000D3F8300008F0B4FC70BDC046541D002028
:10413000CD1B01005C1D0020002210B5054B1A703C
:10414000FFF7D8FF044806F03BFB0A2008F0A0FC6C
:1041500010BDC04688000020A01C0020FA2210B527
:10416000D200FFF7C7FF10BD10B56422FFF7C2FFF2
:1041700010BD0000F8B54C4B1D78002D29D15A78A0
:10418000002A2DD0494C4A4E22007C321278002A57
:1041900023D0210058310878626F011E00D0E16EF3
:1041A000521A44498A4218D801223270002D3ED159
:1041B0005B78012B15D14048026F622A11D12A0089
:1041C0002900FEF741FB35703C493D48FEF70EFDE6
:1041D00006E0012D04D19A79D2E73278002AE5D1A0
:1041E000F8BD22007C321278002AF9D12200583220
:1041F0001578002DF4D1022B0FD0032B08D0012B02
:1042000013D12A002C48036F591CC9B2FEF71CFBBE
:1042100020002C4906F0E8FBE2E76321280008F0C3
:10422000A8FB2A00C1B22448F0E73570F0E7012D61
:10423000D6D19B79012B03D1234842781D2A23D064
:1042400022007C321278002ACAD122005832157816
:10425000002DC5D11C4F022B1DD0032B08D0012BE4
:104260001FD179780131C9B22A003800FEF77CFEEF
:104270000021BB6C59564A1CB2D05A780E48002314
:10428000C9B2FEF771FBC3E700221100FDF7A4FFDE
:104290000023337098E71E21280008F06AFBC1B2A2
:1042A000E2E73570E4E7C046501B0020A01C002068
:1042B000D267002087130000981D0020551D0100C3
:1042C000541D00200A200020D461002010B50F4C9E
:1042D000237883420BD062280AD964230C482370C8
:1042E000FEF753FBFE2211000A4806F0BBFA10BD90
:1042F000C31ADA179B185340022BF8DD20700448CC
:10430000FEF743FB21780A00EEE7C0465E1B002063
:10431000D4670020A01C0020064810B503007C33A1
:104320001B78002B04D00121034B197006F012FA00
:1043300010BDC046A01C0020BC61002010B5FFF7D6
:10434000EBFF10BD10B5FFF7E7FF10BD10B5054C32
:104350002378002B05D00021034806F0FBF9002349
:10436000237010BDBC610020A01C002070B50D00A2
:104370000400FFF7EBFF290064222000FFF7BAFEDC
:104380000122014B1A7070BD8800002070B50D002D
:104390000400FFF7DBFFFA2229002000D200FFF71C
:1043A000A9FE0122014B1A7070BDC0468800002092
:1043B00070B5FFF7CBFF0D4C0D4EE36E0D4D300089
:1043C000AB70FEF795FE2B787060002B05D10A4884
:1043D00021000A4A0430FFF70DF8094B1B79002B26
:1043E00003D0E16E0748FDF787FF70BD981D0020E0
:1043F000CC600020501B00205C1D0020F8600020D5
:10440000541D0020621D010070B5154D154C2B6F19
:10441000154E2000F370FEF76BFE6060134C1449DC
:104420002000FEF7CDF8134804F072FAA38E002B9B
:1044300001D18033A3863378002B05D10E482200AA
:1044400029000430FEF7D6FF0C4B1B79002B03D05C
:10445000296F0B48FDF750FFFFF778FF70BDC0468E
:10446000981D0020CC600020501B0020F860002028
:104470000A200020086100205C1D0020541D00203F
:104480006C1D0100F0B59C4B87B01C78002C0CD043
:10449000012C00D1F6E0994B1B78002B03D1984BEF
:1044A000186803F02DFE07B0F0BD12260222954BCE
:1044B000934D1F68944BE8681B6864210493934BE9
:1044C00052421B7805930368019400961C6C1E23CE
:1044D000A047012402220294019400961E23524216
:1044E0006421E86802F0ABFA381C0BF0F5FD884A4D
:1044F000884B09F0A1F9071E00D183E0072301933F
:1045000009330093029422006921834BE86802F08A
:1045100035FC00261823642231000598009608F027
:1045200032FA03002800DBB2092267210C30009325
:104530001823FFF731F80C22286831000368009235
:1045400001961C6C27328023A0477423734AFF33E3
:10455000D45C0493B4422DD07148FDF76DFF340054
:10456000B04227D0686A3422036801960A36009662
:104570001B6C6C211F003300B84728003422330025
:104580006E2124300096FFF7B9F9664B686A210066
:10459000036102F040FE0121686A02F035FEA86A5C
:1045A000FDF74AFFC317C1183200686A594006F088
:1045B00074FB1634049B594AD35C002B00D16AE784
:1045C0007D233926280001271C1BE4B2230032007A
:1045D0000321103001970096FFF71CF82B6A5A78D8
:1045E000BA4227D12100043C083909B2039202964D
:1045F00024B23D23352200930B000194286902F078
:10460000C1FA48E74849049809F0F0FB09F0D0FEE8
:104610001E232822009320213B0008F0B4F9030058
:104620002800DBB200932200182367210C30FEF72C
:10463000B3FF6EE7022A16D1A3B2210004933D23F3
:10464000083C0C3924B209B20093039702960194F6
:104650000B003332286902F095FA049A0397111F70
:1046600009B20296C5E7032A00D014E73D23211FB3
:10467000083C09B224B2009303970B000296019400
:104680003232BBE7002640221D4D762128680368A0
:10469000019600921F6C32000A23B8473C23280081
:1046A000009340331900042210300196FEF7B2FF48
:1046B0000423E86A0A21026800930196166C1E2200
:1046C000B04700212B6B6A6B9B6C907859568842DF
:1046D00000D0E0E65B78D2785BB29A4200D0DAE6AE
:1046E00020230293143B0193163300930394183B49
:1046F0001E221900E86A82E7501B0020D4670020C0
:104700005C1D0020F0670020EC6700205E1B00208D
:104710009A99999999990940C2500100981D0020D1
:10472000C86100207C0036000000204170B5914B2C
:10473000914C7C331B7888B0002B04D008F072F9C0
:104740000023A060237008F06DF908F06BF9A368EE
:10475000C01A6368984208D32378002B05D101332F
:104760002370E368002B00D09847FFF703FD834BCD
:104770001B78002B00D1AFE08148FEF7BDF98148DE
:10478000FEF7BAF98048FEF7B7F900267F4D804C56
:1047900073592000D9B2FEF707F9E07908F032FB2F
:1047A000236802A983428041404270500436182E8B
:1047B000ECD17848FEF713F92B682000D9B2FEF748
:1047C00006F90BF059FC744A744B0AF003FE020020
:1047D0000B0009F08FFE0022714B0AF0FBFD002256
:1047E000704B0AF0F7FD0023002209F02FF82B6828
:1047F000D9B2002800D189E02000FEF7E8F80BF0DC
:104800003BFC654A654B0AF0E5FD02000B0009F030
:1048100071FE0022624B0AF0DDFD0022614B0AF0BE
:10482000D9FD0022604B09F065FE0BF0EFFB09F0AB
:10483000DFFD5E4909F0CEF95D4B18606B68200022
:10484000D9B2FEF7C4F80BF017FC534A534B0AF0E9
:10485000C1FD02000B0009F04DFE0022504B0AF092
:10486000B9FD00224F4B0AF0B5FD0022002308F0ED
:10487000EDFF6968C9B2002862D02000FEF7A7F8F2
:104880000BF0FAFB444A454B0AF0A4FD02000B0072
:1048900009F030FE0022424B0AF09CFD0022414B01
:1048A0000AF098FD0022404B09F024FE0BF0AEFB0D
:1048B00009F09EFD3D4909F08DF93E4B18600F202F
:1048C00008F0A0FA6423052100933B4A002308F076
:1048D0005AF8C0B2FFF7FAFC08F0A4F8374C236886
:1048E000C01A632804D908F09DF82060FFF7CAFDBC
:1048F00008F098F8324C2368C01AFA23DB0098427B
:1049000002D308F08FF8206008B070BD2000FEF7D9
:104910005EF80BF0B1FB204A204B0AF05BFD020071
:104920000B0009F0E7FD00221D4B0AF053FD0022A9
:104930001C4B0AF04FFD00221B4B0AF0B7FF74E737
:104940002000FEF744F80BF097FB134A134B0AF0D4
:1049500041FD02000B0009F0CDFD0022104B0AF0D2
:1049600039FD00220F4B0AF035FD00220E4B0AF0F4
:104970009DFF9BE7A01C0020D4670020880000203A
:104980002C6200205C6200208C62002070000020FD
:10499000C0610020201D00206666666666660A40CB
:1049A000000024400000503F0000E03F0000204194
:1049B000F0670020EC670020FF030000F86700208C
:1049C000F4670020F0B50400026A93009B10002BEE
:1049D0000DDD0F685E10BC46B50065192F68BC453B
:1049E00003D39B1B2C1D013BF1E73300EFE7A042F3
:1049F00002D0043C2068F0BD013A92001058FAE75A
:104A000073B50026534B54481E700C00FDF7BDFFD4
:104A1000524D2B78B34262D1601E04280ED808F0A4
:104A200061FD031C494D55004D4B01217C331B7822
:104A3000002B00D100214A4805F08CFE2A78494D10
:104A400049492800FEF7F0F8280022004749FEF700
:104A5000EBF80A2008F01CF873BD454B5868404B32
:104A60001A0058321678434A002810D0416A0029AB
:104A70000DD0002E1AD13300918E7D224A4304308E
:104A80009B1A01A90193FFF79DFF010008E0918E99
:104A900039484143002E58D0D86E884208D0411A78
:104AA000002ECBD0354803F0C5FDC7E7DB6EE3E74A
:104AB0000021F7E70120FFF7AFFABFE76B78022B81
:104AC00002D801336B70B9E70023FBE780212C4843
:104AD000C901037A5B420372FDF7C4FCAEE7012B08
:104AE0001BD1601E0428A9D808F0F2FC9E0319050A
:104AF00011000320DFE7AB790022022B01D801333C
:104B0000DAB2AA711F482C30FFF7A8F896E71E48C2
:104B10001E494830FDF776FBF4E7022B01D1002057
:104B2000C9E7032B00D089E7022C0BDC002C00DA4C
:104B300084E7174B1A780C235343164A985CFFF707
:104B4000ABF97BE7042CEAD078E730000029A6D146
:104B500074E7C046D2670020D4670020501B0020B5
:104B6000A01C0020541D0020501D0100771D0100D5
:104B7000CC600020F860002071020000F81C0020CA
:104B8000C86100205C1D0020D4610020981D002019
:104B90009C1C0020040000207FB5002401AB19708C
:104BA0005C70184B0500C61830002300019905F011
:104BB0006EFB8D23DB00EE50134B2000EB5CA34219
:104BC00013D101223100280004F026FF0200A04288
:104BD0000DD00E4BEC18200003F09AFE29002000A7
:104BE00003F0CCFB00280AD1002004B070BD030004
:104BF0003100280004F010FF0028EAD1F4E7044B4C
:104C00001D60F2E76C0400007E0400004404000014
:104C1000C06C0020F7B5E121894C4902200006F064
:104C2000B7FB884B1B78002B08D0200006F0B2FBA6
:104C3000002803D1013007F02BFFF6E70124824B57
:104C4000824D1B783C222B71022123008048009466
:104C500002F0A6FF002813D07E4E306802F08FFFCE
:104C60002100306802F0D0FA00223368DA767A4AFE
:104C70001C775A61FDF762FB28007849FDF7B6FF03
:104C8000774F380005F09CFE002808D1754971481F
:104C9000FEF7D0FA28007449FDF7A8FFFEE70521CA
:104CA000380005F07BFC71492800FDF79FFFFA20D2
:104CB000400007F0EDFE6E4C6E4A6F49206805F02B
:104CC00091FD50220A21206805F06BFD0A2007F0B3
:104CD000DFFE80212000C901FDF7C4FB674B3800CF
:104CE00019780A0005F0BEFD0521654A6548FFF701
:104CF00053FF002808D164495648FEF79BFA280064
:104D00006249FDF773FFFEE728006149FDF76EFF7A
:104D1000604C614B614A2360614B2800A3602361B2
:104D20000023604923766260E260FDF75FFF5E4B1F
:104D30005E495F4A5F4899505F49043299505F4924
:104D40005F4A99505F49043299505F4B5F4A5A65F8
:104D50005F4A1A655F4ADA645F4B604ADA60604B0B
:104D6000C360604B0361FDF710FE28005E49FDF74C
:104D70003DFF5E4E3078022108F0BCF870780221C9
:104D800008F0B8F8FFF7D2FC594BF361594BF362C6
:104D9000594BB362594B30369E42EBD1584E0121EC
:104DA000307908F0A7F87079012108F0A3F8B079FC
:104DB000012108F09FF8F079002108F09BF8514B91
:104DC000514A28005A62514A51499A62514A012671
:104DD000DA62514A1A63FDF709FFFA2300962000B0
:104DE0004E4A4F499B01FDF789FF009620004D4B2D
:104DF0004D4A4E49FDF782FF4D4D0E232A00009685
:104E000020004C49FDF77AFF124C4B492000FEF779
:104E1000F5F9206803F074F93800484905F060FEA0
:104E2000EA78A97800232048FDF79EFD2A79264BD1
:104E300028781A706A795A70FFF7EEF8F7BDC04605
:104E4000E46F0020D1670020D0670020541D0020AF
:104E5000BC6200205C1D0020010001007F1D0100DC
:104E6000A01C0020971D0100A91D0100D61D0100F6
:104E7000C86100205D050000F05201005E1B0020AB
:104E800000093D0028630020FD1D01000C1E0100EB
:104E9000311E0100B46700208D430000394100003D
:104EA0006D4300004E1E0100981D00203D43000090
:104EB000A4040000D4670020B14300004543000073
:104EC000AC04000009440000D461002069410000E6
:104ED0005D410000853C0000CC6000200521000001
:104EE0007521000091230000661E01002C62002045
:104EF000A13D0000032100008F230000BC620020C0
:104F0000C0610020201D0020014A00006D2C00001F
:104F1000841E010099510000552C00004C220020F5
:104F20002C1D0100B81A000089000020A01E0100FD
:104F3000501B00203A1D0100EB1C0100B01E0100B7
:104F4000F7B5541EE70F3F197C1001940C00019D2A
:104F5000A54213DD1C4F661CBC467500AC44674679
:104F6000F600BF0036583F58A400BE42B641764214
:104F7000AD1BAE00365826502C00E8E7D5070ED4FE
:104F8000023AD50FAA185210A24208D1621C0E4D47
:104F900052005519AD002D58A4002550541E651E11
:104FA000EA0F52195210A5004519A1420ADA9400DD
:104FB0002458A34206D92C60541EE50F2D19140065
:104FC0006A10F0E72B60F7BDFFFFFF3FF0B504006C
:104FD0000D00160085B02B1B402B21DD9F10002EED
:104FE00020D1BE1E76106A460021B3001170200049
:104FF0003A003100E358FFF7A3FF002E01D0013E35
:10500000F1E7694600202268043D2E1B2B682A60C8
:105010000870B21000212000FFF792FF042EF0DC90
:1050200005B0F0BDDB109B00E318221D676818680F
:1050300003922A1F94461168013E2268874209D2D2
:10504000814201D9206003E0B94205D9634621605D
:105050001A6003E0B94214D9276062602B00271D53
:105060003A682068824211D3043B19688842FBD316
:10507000BB4209D8290032003800FFF7A7FF3D00E6
:10508000A9E78142DED9E1E739601A600437E7E732
:1050900070B504000D0088421DD00E1AB01008F043
:1050A000DFFB1F22121A290020005200FFF78EFF9B
:1050B000402E0CDD2600403631002000FDF700F9BF
:1050C000B54208D03000FDF7F1F80436F8E72900C2
:1050D0002000FDF7F5F870BD4368F7B505000C003A
:1050E000002B03D01B785BB201330AD12800FDF7F7
:1050F000FFFF686000281ED0AB68DA6E02701B6F7D
:1051000043706A68566A101DB10043189C460B1123
:1051100001930300019F002F1DDD1F68A74203D0EC
:105120005F68A74208D104339C451FD0EB68002B71
:1051300001D020009847F7BD9F68A74201D10833EE
:10514000F2E7DF68A74201D10C33EDE7019F10338E
:10515000013F0197DEE76746FF1A082F16D00C2F94
:1051600010D0042F02D11F68A742DDD0072EDDD852
:10517000731CB60053620431921954604118FFF752
:1051800087FFD3E71F68A742CED004331F68A7422A
:10519000CAD00433E7E70000F0B5604D0C002B786F
:1051A00085B0002B00D09FE0052936D8080008F014
:1051B00099F9031F3B343497594B5A4E5B68002BC7
:1051C0000BD05B6A002B08D000230093FA23300039
:1051D000554A56499B01FDF70DFE00232A0054490C
:1051E00000930E333000FDF705FEFEF7D7FE14E006
:1051F000504D2B0058331B78002B0ED0E96E002940
:105200000BD04D4B6A6F5B6E934206D14448FFF75B
:1052100063FF0021280005F09DFA22004749484815
:10522000FDF7ECFC05B0F0BD424B1A005832127885
:10523000002AF2D0DA6E002AEFD03F495B6F496E48
:105240009942EAD1364B03925E68002EE5D0351DB7
:1052500003A92800FFF7B6FB736A9A002B00A91870
:105260001211002A1EDD1F68B84203D05F68B842E1
:105270000BD10433994220D01A1D91421DD01768DA
:10528000B84200D080C30432F7E79F68B84201D12A
:105290000833EFE7DF68B84201D10C33EAE7103397
:1052A000013ADEE7CA1A082A15D00C2A0FD0042AC0
:1052B00002D11A689042DDD00B005B1B9B10D9B263
:1052C0007162890028006918FFF7E2FEA5E71A68F5
:1052D0009042CFD004331A689042CBD00433E8E731
:1052E0000320FEF799FE98E7012B96D1002907D0FD
:1052F000052900D091E710491248FDF745FE8CE7DB
:10530000084E0E232A00009130000949FDF772FD76
:105310000D4B0E4A0E49009464E7C046501B002016
:10532000CC600020B46700204C2200202C1D01001E
:105330003A1D0100A01C0020981D0020C01E010085
:10534000541D0020D4610020B81A000089000020FC
:10535000A01E0100A44BA54AF0B51A60012200244A
:10536000A34D1A71A34BA44AEC52A44B87B0EC5442
:105370002233EC50A24B2800EA502A220433EC528C
:10538000A04BA149EC54A14BEC71EA54A04BA14AAB
:10539000EC54A14B0127EA501C33EC549F4A07F010
:1053A00051FF05237F420193043339000622009305
:1053B0009B48013305F00EF99A4B994A9A4E1A60B0
:1053C0008023984ADB01536017723000FDF700F824
:1053D0009648FCF7FDFF964B7563F4500433F45088
:1053E000944BF4500433F450934B5D61934D1C6027
:1053F00028005C609C60DC601C611C76FCF7E8FFA8
:1054000004228F4B21002B608E4B8F4D9A60844A73
:1054100028001A6078225A608C4ADC605A618C4AF3
:105420001C619A618B4B18226B602C8008300AF04B
:10543000E2FF2800122221002F8422300AF0DBFF35
:1054400028001222210034300AF0D5FF2B0020332F
:10545000AB64814BEC642C656C6519003225FF222E
:1054600018004130FF301A705A705C622833834252
:10547000F9D1013D002DF3D1784B794C19609E6034
:10548000DD60784B40220293774B8021019301230A
:105490005B4220000093754B02F03EFA74492000F5
:1054A0005E4A07F0CFFE8022724B92001A60724A69
:1054B000724C5A60C82363602D33FF33A360FA2314
:1054C0000627DB00E3603800276007F02BFB206134
:1054D000182007F027FB6061182007F023FBA0616C
:1054E000380007F01FFBE061380007F01BFB236961
:1054F000206204936369053F9C46E36905932B0092
:105500006146049A5755AA008B50059A5355435546
:105510000135062DF4D12000404A594907F092FE8A
:10552000584C594B277323802369632B00DA63237C
:1055300000250127636104232A00E373290020006A
:105540002561A761FDF7AFFA504B238623003C335A
:105550001F70236C632B00DA63236364230004222F
:105560003F331A7001270022494811002564A764BF
:10557000FDF799FA230060331F8023006C331D7000
:10558000236F052B00DA0523636705235B4223673E
:105590000633A36703336F340022052123703D488F
:1055A000FDF781FA3C4C3D4B63600023E3602361CF
:1055B000237007F037FA3A4B1949A060596119482E
:1055C0002649274AD961986236491F481A605A60AD
:1055D0009E60DA601A619E6119625A62DA6218632B
:1055E00059639A6307B0F0BD541D0020E46F00209A
:1055F000286300204404000000093D004604000028
:10560000740400007C040000072100007E040000F8
:1056100082040000506901006C04000000000020BA
:10562000A01C0020C8610020981D0020D01D002073
:10563000A4040000AC040000B4670020F86000205F
:10564000181F0100DC600020D4610020CA1E010088
:10565000D91E0100890000204C220020CC600020CF
:10566000BC620020A0860100801A06008C6A00201F
:1056700079790000C06100200D0C0B0E201D002068
:105680009D2100002C620020111000001312000068
:105690005C6200208C620020D4670020102700008C
:1056A0005C1D0020501B002010B500F087FB00227D
:1056B000024B8000C35849331A7010BD9C6800200B
:1056C000F0B5040085B01E000AAB1B7810300193C2
:1056D0000BAB1B78170002930CAB1B780D000393E8
:1056E00000F0EEF92000243000F0EAF92200002357
:1056F0004832A363E363236463641370537063727B
:105700009D4205D12721084B084A09480AF0B4FDFB
:105710002000019B25606371029B2771E371039B4D
:10572000A671237205B0F0BDAA5D0100BB5D01004A
:105730000F5E010030B5040085B002AD0068029133
:10574000039205F06EFB6B79227AE1792068009371
:10575000002305F02FFD2979029A206805F086FBC9
:10576000206805F054FB05B030BD10B5040000689A
:1057700005F040FB0023637210BD000010B54B1C08
:105780000BD0102909D0EFF3108472B6102905DD73
:1057900002238372002C00D162B610BD0123827AED
:1057A0001A43827218224A430449891816228A56DB
:1057B0009340C2681343C360ECE7C046906B01009E
:1057C00007B5837A00910192002B07D09A070AD57A
:1057D000EFF310835A425341C37272B60099019A93
:1057E000FFF7A8FF07BDDB07F8D5C368014A9BB2E6
:1057F0009360F3E700180040837A002B05D09A07E6
:1058000004D5C37A002B00D062B67047DB07FCD505
:10581000C368024A9BB2D360F7E7C0460018004055
:1058200010B5006805F006FB10BD70B505000C0052
:105830008E18B44206D021782800FFF7F1FF2070BF
:105840000134F6E770BD000010B5006805F006FCF5
:1058500003000020834203DB0C304343014A985885
:1058600010BDC046645E010010B5006805F0F6FB8F
:10587000002805DB0C2343430348C018406810BDD3
:1058800001204042FBE7C046645E010010B500689D
:1058900005F0E4FB002805DB0C2343430348C01854
:1058A000806810BD01204042FBE7C046645E0100F5
:1058B000F0B506001036050089B0300000F056F94A
:1058C00000286CD12F002437380000F04FF9041E57
:1058D00062D12800FFF7DAFFC1B2300000F026FAEB
:1058E0000221300000F046FA01222E49300000F07B
:1058F00019FA300000F062FA2B4B8000C5502800E6
:10590000FFF7B2FFC1B2380000F010FA02213800F0
:1059100000F030FA380000F051FA234B8000C550F7
:105920002800FFF791FF01230100220002933000BD
:105930002300049403940194009400F041FAA863B6
:105940002800FFF781FF01230200210001933800A6
:105950002300049403940294009400F031FAE86365
:1059600040200AF0FFFC2A004832286407920028F1
:105970000BD00123137068646B6C10221819E96B4B
:1059800010340AF01CFD402CF6D1079B1B78002B2D
:1059900005D1380000F084F9300000F081F909B039
:1059A000F0BDC046A95600009C68002070B5437A3F
:1059B0000400002B03D1012243814272C360230003
:1059C00048331B78002B02D12000FFF771FF182607
:1059D0003300082120790D4D4343EB18595607F049
:1059E000FDFA33000821A0794343EB18595607F01C
:1059F000F5FA082160794643AD19695607F0EEFAC9
:105A0000034B200006CBFFF795FE70BD906B0100A5
:105A1000946800201FB500240D4B0E4A9C801A602C
:105A2000012301931C3300931C220B490294013380
:105A30000A48FFF745FE02230293233300932422F2
:105A40000749019401330748FFF73AFE1FBDC046DE
:105A50009468002000093D00DC6F0020FC670020F6
:105A6000D46F002048680020084B1968002909D12C
:105A7000EFF31080064A002803D172B6BFF35F8FA0
:105A8000013111701A6801321A607047586A00209B
:105A9000546A0020084B1A68002A0CD01A68013A90
:105AA0001A601B68002B06D1044B1B78002B02D018
:105AB000BFF35F8F62B67047586A0020546A0020B7
:105AC000FF2310B50370C023002104009B00417028
:105AD000418083800C2208300AF08DFC200010BD2C
:105AE00001230A0010B51A40194208D00C4A13705D
:105AF000033343708368002B00D0984710BD022306
:105B0000194204D006490B70C3684270F3E70423BE
:105B10001942F3D0024A1370033343700369EAE772
:105B20004E48004110B5FFF79FFF0C4B1B8C1B0725
:105B30001B0F0B2B0FD80A4A9900885800280AD04F
:105B40000F2408490A78A24313430B70064B1978B7
:105B5000C9B2FFF7C5FFFFF79DFF10BD0048004128
:105B60005C6A00203F4800414E480041F8B50023E0
:105B70000278050018000B2A77D93C4E2B702B7841
:105B80000B2B07D801229A403168114204D001330F
:105B90002B70F4E7012068E0FFF766FF3768344CAC
:105BA000002F2BD12022334B334859690A435A61C5
:105BB0001022D9690A43DA6102222388390093430B
:105BC00023802388013A134323802C4B6063BF3228
:105BD000A3630AF010FCC022390028480AF00BFC2D
:105BE0004022C120264B80002380264B26491A6084
:105BF0001A581140C02212040A431A5001231A00F5
:105C0000297830688A40024332600F261F4A880094
:105C100085501F4831400278B2430A430270022087
:105C20001C4A117881431170117819431170297839
:105C300022698B409A43226160223F21636C934327
:105C400063642A79636C0A40134912020B400321F2
:105C5000134363646A79636C0A40104992050B40F0
:105C600013436364FFF716FF0020F8BD506A00205D
:105C7000004800410004004090690020D0680020E6
:105C8000020F000000E100E0FFFF00FF5C6A00205F
:105C90003F48004140480041FFC0FFFFFFFF3FFF7A
:105CA00070B50500FFF7E0FE6B785CB2062B2BD0D9
:105CB0002B7802240B2B27D801229A40144B196809
:105CC000114221D01968914319601B68002B14D12F
:105CD0004022104BDA67BFF34F8FBFF36F8F210065
:105CE0000D4A0E311388A34313800C4BDA698A43A3
:105CF000DA615A6910318A435A6100242B78084AC4
:105D00009B009C50FF232B70FFF7C4FE200070BD4A
:105D1000506A002004E100E0004800410004004017
:105D20005C6A00200232920011507047037870B50F
:105D300005000C0001710B2B14D8FFF795FE297894
:105D40000F25094829400378084AAB430B430370E9
:105D50003F23516C1C40064B240219400C435464F1
:105D6000FFF798FE70BDC0463F4800410048004123
:105D7000FFC0FFFF037870B505000C0041710B2BCD
:105D800014D8FFF771FE29780F25094829400378B8
:105D9000084AAB430B4303700323516C1C40064B72
:105DA000A40519400C435464FFF774FE70BDC0464F
:105DB0003F48004100480041FFFF3FFF0078704727
:105DC000F0B587B001930CAB1E780DAB1B780500C6
:105DD00002930EAB1B780078039310AB1F780491ED
:105DE00005920B2802D9002007B0F0BD6B78062B76
:105DF000F9D0AB78002B00D179E0102108000AF02F
:105E0000A7FA0028EFD02B783B4A1B019B181A00F9
:105E1000D168002904D0D1688B4201D0D268F7E75D
:105E2000D06001220223AA70964203D0DB18022E12
:105E300000D0130006240188114301800188A1438A
:105E4000018001881234A1430180153C018826405D
:105E50002A4C360221400E430680029E0188284CBF
:105E600016402140B6020E430680039E0188254C51
:105E700016402140F6020E4306800188224E3A4029
:105E8000314012030A43072102800F9A1140028811
:105E90004903D204D20C0A4302806A4692884280A7
:105EA000049A4260029A002A08D0019A41685A4333
:105EB000002F01D00F9CA2408A184260059A826090
:105EC000039A002A09D0019A84685A431300002FCC
:105ED00001D10F9A9340E31883600023EA789A4235
:105EE00003D02B78044A1B019B18C3607CE7024B4C
:105EF0000001C01895E7C04690690020FFFCFFFF35
:105F0000FFFBFFFFFFF7FFFFFFEFFFFFF8B5050007
:105F10000E0017000024BC4208D02B682800315D19
:105F20001B689847002801D00134F4E72000F8BD31
:105F300070470300FC33196ADA69914203D01B6A87
:105F4000C018007E704701204042FBE70300FC338D
:105F5000D8691B6AC01A01D50130FF3070470000B4
:105F6000F7B50193FA238027002504009B00836086
:105F7000114B7F0008330E0045602900009203603A
:105F80003A0018300AF037FA23002000FC332130A1
:105F9000DD613A001D622900FF300AF02CFA8723E8
:105FA0009B00E3185D609D60009B20002375019BB2
:105FB0002661A5756375FEBDAC5E010070B5040079
:105FC00018260C49006905F01FF9206904F06EFFDE
:105FD00033000821207D084D4343EB18595606F045
:105FE000FDFF0821607D4643AD19695606F0F6FFB6
:105FF00070BDC046A0860100906B010070B5040022
:106000000D00006904F067FF2900206905F0FCF825
:10601000206904F04BFF70BD8A2300229B00C1540D
:106020000C3BC3185A609A600123837570470200C5
:10603000FC32536810B501339468DBB29C4202D045
:1060400054680155536010BD10B50300827D0020D7
:1060500082420ED0872292009C186268A4680132A6
:10606000D2B2A24205D02133FF331800FFF7DFFF81
:10607000012010BD0300FC3399685A68914206D094
:106080009A68805C9A680132D2B29A6070470120A7
:106090004042FBE700228A2370B59B008275050011
:1060A0000E00C15C006904F049FF002806D10321FD
:1060B000286904F02DFF0224200070BD87232800EA
:1060C0009B00EA18536894682130FF301C1B01D5EF
:1060D0000134FF34002C0ED02C69FFF7CBFFC1B286
:1060E000200004F069FF0028E8D10321286904F0AA
:1060F0000FFF0324E0E7002EDED00321286904F01F
:1061000007FFD9E710B50121FFF7C4FF10BD10B597
:106110001830FFF7AFFF10BD70B50400006904F040
:106120006DFF002814D0206904F076FF002810D0FD
:10613000206904F0E3FE0321206904F0E9FE8C23CA
:106140009B00E558002D39D10023FC34E361236224
:1061500070BD206904F06AFF002809D0206904F0AE
:1061600060FF002804D0206904F065FF0028DFD01C
:10617000206904F05BFF002826D1206904F047FF66
:106180000028E5D0206904F056FF002837D0872387
:106190009B00E218536892689B1A01D50133FF33C4
:1061A000FF21002B05D020002130FF30FFF762FFD8
:1061B000C1B2206904F013FFA075C9E7236820006D
:1061C0001B699847A847BFE7206904F097FE20693C
:1061D000032104F09DFE206904F02DFF0028B7D0B4
:1061E000872300229B00E3185A609A600123A3755D
:1061F0008B239B00E3589342AAD09847A8E722003C
:10620000FC32D369126A0133DBB22069934206D1B2
:1062100004F06BFE0321206904F07AFE98E704F095
:106220000FFF010020001830FFF701FF206904F084
:1062300065FEEFE710B50248FFF76EFF10BDC046E0
:106240008C6A002010B51B231A2202490248FFF76E
:1062500087FE10BDD86F00208C6A0020F0B51500B5
:106260000C001E0089B00EAB00229B5E0FAA1288A4
:10627000019005925A1BD11752184A400292321BC4
:10628000D11752184A4003920399029A8A4205DDB7
:1062900032001E00130022002C001500B44205DD60
:1062A0002A001D001300220034001600321B91B298
:1062B0000691591BC8170918414012B20791D10F16
:1062C0008A1852100092012204929D4202DB01239F
:1062D0005B420493B44222DC019B039A1B689B69D6
:1062E0001F00029B934216DD22002900059B0198A6
:1062F000B847009B079A9A1A11B293B20091120400
:1063000006D5049AAD18069A2DB2D3181BB2009385
:10631000013424B2DEE72A002100059BE7E709B03B
:10632000F0BD704710B504682469A04710BD37B5AB
:1063300006AC258804680095A46BA04737BD37B527
:1063400006AC258804680095E46BA04737BD73B59B
:1063500006AC0025655F07AC2688046801960095A9
:10636000246CA04773BDF0B5160004000D0085B085
:1063700003930AAB1F8803685B699847039B2268F5
:10638000013B9B191BB2009301972B0029002000B1
:10639000976A3200B84723682000DB6A984705B047
:1063A000F0BDF0B505001C000E00170085B00AAB6B
:1063B0001B88013C03930368A4195B699847039900
:1063C0002A68019100973100280023B2946A3A00AC
:1063D000A0472B682800DB6A984705B0F0BDF0B5F0
:1063E0000E0087B003930CAB029200229B5E040068
:1063F00004930DAB1B883500059303685B699847D0
:10640000039A2368B21895420BDA059A2900009284
:106410001B6A20001F00029A049B0135B8472DB269
:10642000EEE72000DB6A984707B0F0BD13B5019195
:106430000E24015F0C22835E02680091146C00221E
:106440001100A04713BDF0B5040015000E0087B081
:1064500004930CAB00229B5E05930DAB1B8803934A
:1064600003685B699847039A2368009231002A0009
:1064700020005F6A049BB847059B03995A1E236856
:1064800000915219310020005F6A12B2049BB84794
:10649000039A2368009231002A0020001F6A059B9E
:1064A000B8470499039A23680139009289192A0090
:1064B00020001F6A09B2059BB84723682000DB6AE9
:1064C000984707B0F0BD7047F0B585B002930AABAE
:1064D0000027DF5F0BAB1B8816000393029B0400B1
:1064E0000D000268994210D1BE4202DD33003E0029
:1064F0001F00039901370091BB1B976B1BB2320041
:1065000029002000B84705B0F0BDBE420CD1029B67
:10651000994201DD029D0291029B039901335B1BAD
:106520000091D76B1BB2EAE753699847039A236837
:106530000192009720009F6A3200029B2900B84711
:1065400023682000DB6A9847DDE703230B4010B582
:1065500083760822835E0A24025FC90702D48381FE
:10656000C28110BD8281C381FBE700004281C281EC
:106570000122002310B55242064C4261064A0834FB
:10658000436004600181818103618261037703625A
:1065900010BDC046D063010001010001F0B58BB011
:1065A000049310AB1F886B461D8A01235B1B1BB233
:1065B00002936B005B421BB20893036801915B6915
:1065C0000392040098476B469B8920000093EA18C9
:1065D000236801999B6912B21E003B00B047009BE3
:1065E00020005A1B236801999B6912B21E003B00D0
:1065F000B0476B469B8820000193E9182368039AF3
:106600009E6909B23B00B047019B2000591B2368DB
:10661000039A9E6909B23B00B04700230693069B8C
:10662000049A934200DB81E0029B002B0BDB1300FA
:10663000013B1BB20493089B02331AB20892029AE0
:106640009B181BB20293069B200001339AB21BB227
:10665000039206935300029A01339B181BB2039ACC
:106660000293019B9B181BB209936B461B8A0999E5
:106670000593059A009B9E18236836B232009D69E7
:106680003B00A847019B039A20009D1A2BB2079359
:10669000236832009B6907991D003B00A847009BB7
:1066A000059A20009E1A236836B29B6932001D00AD
:1066B00009993B00A847236832009B6920001D0010
:1066C00007993B00A847059A019B20009B181BB225
:1066D000039A0793009B07999D1823682DB22A00FF
:1066E0009E693B00B047019B059A20009E1A2368D3
:1066F00036B29B692A009C46310065463B00A8479C
:10670000039A009B20009D1A2BB203932368039ADF
:106710009B6907991D003B00A847236831009B69CE
:1067200020001D00039A3B00A84778E7236820005B
:10673000DB6A98470BB0F0BDF0B58BB0019310AB9E
:106740001B780592069311AB1B88012202936B46BE
:106750009B880400D21A5B005B421BB209930023A2
:1067600012B2049103920793079B019A934200DBB4
:1067700096E0039B002B0BDB1300013B1BB2019344
:10678000099B02331AB20992039A9B181BB2039316
:10679000079B01339AB21BB2009207935300039AEE
:1067A00001339B1804221BB20393069B13421AD099
:1067B0006B461D8A9F889E8A009BF219E918236800
:1067C00020009B6912B2089509B21D00029BA847E0
:1067D000009B2000F618089B32B2DD19236829B20D
:1067E0009F69029BB8470222069B13421AD06B4650
:1067F0001D8A9F889E8A009BF21BE918236820004F
:106800009B6912B2089509B21D00029BA847009B24
:106810002000F21A089B12B2DD19236829B29F6981
:10682000029BB847069B1B071AD56B461D8A9F8A99
:106830009E88009BA91BFA18236820009B6912B24E
:10684000089509B21D00029BA847009B0899F619FC
:10685000C91A236820009F6932B2029B09B2B84767
:10686000069BDB0700D47FE76B461D8A9F8A9E88C4
:10687000009BA91BFA1A236820009B69089512B295
:106880001D0009B2029BA847009B0899BE1BCD1AA8
:10689000236820009F6932B2029B29B2B84763E7A0
:1068A0000BB0F0BDF0B51C008FB00692012214AB06
:1068B0001B780591079315AB0021595E16AB1B8819
:1068C00005000893A3B2D01A93405B421BB289180B
:1068D0000C938BB209930493002300B202900393AC
:1068E0000D92039BA3427BDA029B2700002B09DB5E
:1068F0000C9B671E02331AB20C92029A3FB29B188D
:106900001BB202936B469B890A9301339AB21BB266
:1069100003930B925300029A01339B181BB202930C
:10692000039B9F422CDB079B0D9A134212D00999BF
:10693000BAB25300CB1806990B988A1A05992E689B
:10694000411808981BB20090306A12B2060009B2D2
:106950002800B0470222079B134211D00999BAB20E
:106960005300CB1806990B988A1A0599089E091AA4
:1069700028680096066A1BB2280012B209B2B04716
:10698000BC4227D0079B0D9A13420FD06B460A9941
:1069900010229B5E069A089E521A059928680919CA
:1069A0000096066A12B2280009B2B0470222079B7D
:1069B00013420FD06B460A9910229B5E069A2868F4
:1069C000521A059912B2091B089C09B20094066A72
:1069D0002800B047049B3C0002339BB2049380E73D
:1069E0000FB0F0BDF0B51E0004000F0087B00CAB77
:1069F0001B880492059303685B699847049905987E
:106A0000B2B253008A1A21680090096A01330D005E
:106A1000200039001BB212B2A847059B390002932F
:106A20000023019303332000049A00933300FFF7FF
:106A300039FF23682000DB6A984707B0F0BDF0B546
:106A40008DB01E0012AB0027DF5F13AB0A9100214F
:106A5000595E14AB1B880B92040003933A1CB74297
:106A600000DD321C12B2D30F9B185B101D1C8B4231
:106A700000DD0D1C2BB20593236820005B6998474D
:106A80006B461B8DAAB20793ABB20693079B6D00B2
:106A90009B181BB20493B3B20893ABB20993099A43
:106AA000089B20009D1A039A236800922DB25E6A0B
:106AB0000B9A2B000499B0476B469E8DBFB2721E95
:106AC000BA18039993B20B93236800915B6A200074
:106AD0009C4604992B0012B26546A847069B039A70
:106AE0009E19099B35B2FF1A236800923FB22A0013
:106AF00020001E6A0A993B00B047079B039A5E1E5E
:106B0000089B00929E19B3B2079323682A002000C5
:106B100031B21E6A3B00B047039B2A000193012358
:106B2000200004990093059BFFF706FE079B069A39
:106B300020009E1A039B36B2019302232A003100E3
:106B40000093059BFFF7F8FD0B9B069A31009D1AF9
:106B5000039B2DB2019304232A0020000093059B80
:106B6000FFF7EAFD039B2A00019308232000049904
:106B70000093059BFFF7E0FD23682000DB6A984740
:106B80000DB0F0BDF0B591B01D0016AB0292002221
:106B90009B5E0700039317AB00269E5F18AB002295
:106BA0009B5E039A049319AB1B880C000993029B0C
:106BB000934200DCD7E0049A93421DDD049B039AC4
:106BC000934212DA1300049A0392029A02932B0062
:106BD0003500260004921C000EE0029B039A0393EA
:106BE000230002922C001D00E8E7029B049A049304
:106BF000230034001E0002923B6838005B6998470E
:106C0000039B049A93421DD1A54202DD2B0025006F
:106C10001C00B54205DC231CB44200DA331C2E00F4
:106C20001CB209993A6801340091A31B556A3100DE
:106C30003800039A1BB2A8473B683800DB6A9847C4
:106C400011B0F0BDA3B2ADB205935B1B1BB26A4697
:106C50000D936B4691891B89B6B25A1A12B20E92E5
:106C6000721B12B208926A46128A511A09B20B912B
:106C70000599D21A761A31B212B20C910F92049978
:106C8000029A0A928A4202D0013B1BB20A93002365
:106C9000039E079306930A9B9E422ADC0E99069850
:106CA00006F0B4FC28180B9904B2079806F0AEFC65
:106CB0000D9A069B9446089A634494460693079B54
:106CC0002818634400B20793844202DD23000400C5
:106CD000180009993A680091526A01309446031BE2
:106CE00032002100380064461BB20136A04736B29C
:106CF000D1E7029BF21A0C9B53430293039B089A21
:106D0000F31A5A430392049B9E4200DD94E70F99C5
:106D1000029806F07BFC059B0B99181804B20398A7
:106D200006F074FC0C9A029B9446089A63449446BD
:106D30000293039B2818634400B20393844202DD4C
:106D400023000400180009993A680091526A013042
:106D50009446031B32002100380064461BB2013602
:106D6000A04736B2CFE7039B049A934200DD34E795
:106D7000029A029303922B000D002CE7F0B58DB020
:106D8000089312AB079200229B5E0691029313AB0D
:106D900000229B5E0400099314AB1B8800260A9313
:106DA000036835005B6998470722029B0B92D91D47
:106DB000CB1713405B18DB10039333009AB2049295
:106DC000079A99B28A1812B20592099A934226DA62
:106DD0000023029A93421CDA9AB201920B9A6D0038
:106DE000EDB2134203D1089ADB109219D55C6BB255
:106DF000002B0ADA019B069A200099182368059A4D
:106E00009B6909B21F000A9BB847019B01331BB263
:106E1000DFE7049B039A01331BB2B618CEE7236861
:106E20002000DB6A98470DB0F0BD0000F0B595B0CA
:106E30001D001AAB1B88049205931BAB1E881CAB6C
:106E40001B78026A02931DAB1B7804000891039320
:106E5000002A00D0C4E00C22835E8B4200DC7DE07F
:106E60000E22835E049A934278DD0623029A5343EE
:106E70005B18002B72DD039B049ADB009B18002B30
:106E80006CDD037F002B03D1AF2D01D90135EDB2AD
:106E9000236820005B699847052200235543079328
:106EA000984B0B925B190F93079A0F9B9B5C0A936D
:106EB0006B469B8B09936B461B89099A0E936B4615
:106EC0001F8C029B5343FB181BB20D9308230C939A
:106ED0000023069301220A9B2068134252D06B467E
:106EE0001A8B198A029B012B3AD1039B012B37D1B4
:106EF000099B52188569D919059B12B209B2200065
:106F0000A847069B01335BB206930A9B5B080A9372
:106F10000C9B013BDBB20C93002BDBD1079B0133B5
:106F20005BB207930B9B013BDBB20B93002BBBD1F6
:106F3000059BB3420ED0029B2268012B3FD1039BDD
:106F4000012B3CD105370096156A2000049A39B20E
:106F50000733A84723682000DB6A984715B0F0BDC7
:106F60006B4608255B5F039D6A438A18059912B238
:106F7000019169460C25495F0091C5690D99200072
:106F8000A847BEE7059BB342BBD06B461A8B198A54
:106F9000029B012B0AD1039B012B07D1099B52189D
:106FA000D9198569330012B209B2A8E76B460825E2
:106FB0005B5F039D01966A438A1812B2D9E76B465C
:106FC00008215B5E05210E980196414303987918CC
:106FD000C0000090D5692000049A09B2A847B9E71B
:106FE000137A5168ED1A1268EDB2ED0013924A5B04
:106FF0004B1909929A780D92DA78119205229A56D5
:107000009B790E925BB20F93029B012B02D8039BDC
:10701000012B56D96B4638229B5E0B936B463C2264
:107020009B5E0C930027236820005B6998470797B5
:107030000697119B069A9A4200D38BE76B461B8AF0
:1070400000260A930C9B9B18039A53430A9AD31861
:107050001BB210933B000D9A96424BD25A1CD2B2EF
:1070600012920722134207D1099B0999139A0133FF
:10707000525C9BB2079209936B461B7F5BB2002B5D
:1070800017DA6B46198C029B2068012B1DD1039BDC
:10709000012B1AD10A9B0F9A9A18069BD2180E9BA5
:1070A00012B2C918836989191D002000059B09B215
:1070B000A847079B01365B00DBB20793F6B2129B31
:1070C000C9E700230C930B93ACE76B4608229B5E49
:1070D0000B9A029D92196A438918059A09B2019286
:1070E0006A460C25525F0092C26920001500109A72
:1070F000A847DEE7069D0D9B0135FF18EBB2FFB2F6
:10710000069396E7D05E0100F0B5026A04000B001A
:1071100085B0002A34D10A2908D1437E0282DB00DF
:10712000628A9B186382012005B0F0BD0D29FAD058
:10713000E17E007E657E00290ED01026A15F062626
:10714000464389190C27E65FB14205DD1226A15F8F
:107150002282EA00521862820290E08A1221625E64
:107160000190A08A1026A15F009003952000FFF7F0
:107170005DFE0622237E5343228A9B182382D2E798
:107180000A2905D100230382127B437E5343C7E7BC
:107190000D29C8D0117A8B42C5D3907A9842C2D3B8
:1071A000591A5068C9B2C9004518AF78002F28D0C5
:1071B000E978002925D0E17E207E667E002913D063
:1071C00005216956C91941438C461021675EBC44AC
:1071D0000C21675EBC4507DD1227E15F002727828F
:1071E000127B7243521862820290E08A1221625E20
:1071F0000190A08A1027E15F009003962000FFF71E
:1072000015FE2B79227EB6E70B1C002900D1012345
:10721000037643767047036A002906D0002B02D11B
:10722000438A0633438201627047002BFBD0438AB6
:10723000063BF7E7F0B5046A85B0002C00D172E098
:107240000A2908D100211180427E217B4A431988F6
:1072500052181A8065E00D2963D0257AA94260D3BF
:10726000A67A8E425DD34D1BEDB26168ED004D19DB
:10727000A978EE780091019606212E7902960526CE
:107280006956AE570391C57E002D13D00099077E35
:1072900075187D430021575EBC460C21475E65444E
:1072A000BD4207DD00251580457E247B6C431D888B
:1072B00064191C80047E0099664361431588013976
:1072C000AE19407E35B276180199039F414347437A
:1072D00008001B880A99DF1901383BB23F180020CB
:1072E000095E36B23FB2A94201DD0A990D800B99C1
:1072F0000020095E994201DD0B990B800C9B002157
:107300005B5EB34201DA0C9B1E800D9B00215B5E2D
:10731000BB4201DA0D9B1F80029B63431488E41873
:10732000148005B0F0BD0A2903D11480427ED2003A
:107330008DE70D29F5D0C17E00290FD006260C213E
:10734000455E017E71430027D65F89198D4205DABB
:107350001480417E1C88C900091919800624017E09
:107360004C430025515F00269D5F6418417E013C1F
:10737000C90049190C9D01390026AD5FA54201DA0B
:107380000C9D2C800D9C0025645F8C4201DA0D9CC5
:1073900021800024115F0A9C0025645F8C4201DD7E
:1073A0000A9C218000215B5E0B990024095F9942B1
:1073B00001DD0B990B800621037E4B4311885B187E
:1073C0001380AEE7F0B50500162089B0684402804E
:1073D00005A80380244806AC20801A246C44208031
:1073E000012007AC404220801E240E9F6C443A804E
:1073F0000F9A2080138000230C00109E119A138096
:1074000033801E220134631E19786A4400290ED08D
:1074100007AB02931A23039216226B44019306AB27
:107420000093280005AB6A44FFF704FFE9E707ABC8
:1074300000215B5E06A90020095E8B4203DB01335D
:107440005B1A398033800023D35E1A226A440021FC
:10745000525E934205DB0F9901330A809B1A119A01
:10746000138009B0F0BDC046FF7F0000F8B51500DD
:10747000FF22C273013AFF3A0282079A1F0002609C
:1074800006AB02001E78002334324360817304008F
:107490001370082005F042FB0D4A2B00954200D9DD
:1074A000130003607B1E5A1E934143710323012E78
:1074B00006D00223032E03D00123002E00D0002388
:1074C00003716060A560200027736673F8BDC04635
:1074D00000366E01F7B5002708ACE7570AAC2478F0
:1074E0001825A4460BAC24788173019400246943C9
:1074F00004604460204C214D0E57C273F60176198A
:1075000006620126350043740774611849688D408E
:107510000563791C0AD018257D432957174FC901E7
:10752000C9196519416169688E404662591C0BD0C2
:1075300018214B43E156124DC9014919E318C161A5
:10754000596801238B40836218235A43A3560B4981
:10755000DB015B1883610123A41862689340C36256
:10756000099B0022836063460373019B43730300FE
:1075700034331A70FEBDC046906B010010440041C8
:107580002044004110B504000E202056431C07D0B3
:10759000012105F0AFFC0E200121205605F0DAFC98
:1075A0002068002805D0FEF701FA0120343420704D
:1075B00010BD0F200121205605F09CFC02230F2056
:1075C000617B2056994315D105F0C4FC102020564C
:1075D000431C07D0012105F08DFC1020012120560D
:1075E00005F0B8FC11202056431CDED0002105F028
:1075F00081FCDAE70121E7E7F0B5040000680E003E
:10760000150089B0002803D0FEF70FF909B0F0BDCE
:107610000122237B0292002B01D080230293029A45
:107620003378A16813405A4253414D48DBB2059369
:1076300005F062FFC3B23020032158430393019346
:1076400005F05AFF3100844673190793079B8B425C
:10765000DCD000220B780693029B0398002805D00B
:107660000198002802D060460138FDD1657BA069F1
:10767000023D012D45D810256557013512D0069ED3
:107680001E4035006F1EBD410496059EB54209D0CF
:10769000049E676A6569002E2ED02E683E432E60D8
:1076A000012505950568E66A35430560039D002DB3
:1076B00005D0019D002D02D06546013DFDD111256B
:1076C0006557013506D0E569A66A2D682E4201D0BE
:1076D0001A43D2B20568E66AB54305601120205608
:1076E000013000D00A70207B002837D15B00DBB26C
:1076F000002BB2D10131A9E72E68BE432E60049D54
:10770000CFE70568E66A35430560039D002D05D087
:10771000019D002D02D06546013DFDD11025655724
:10772000013507D0069E6569676A334212D02E681C
:1077300037432F600568E66AB5430560112020567F
:107740000130CBD0E069A56A00680542C6D01A4373
:10775000D2B2C3E72E68BE432E60EBE75B10C6E7EC
:1077600020A1070007B56B460122D971D91DFFF78B
:1077700043FF6B46D8790EBD0300006810B50028A2
:1077800003D05B6806CBFEF71BF810BD006810B590
:10779000002801D0FEF730F810BD10B5807B40B254
:1077A000431C01D005F0D6FB10BD10B50400FFF757
:1077B000E3FF00212000FFF7F0FF10BD10B504002B
:1077C0000121FFF7EAFF2000FFF7E0FF10BDF7B54A
:1077D0001C00050016000191FFF7E7FF089BE71862
:1077E000BC4209D1019CA619B4420BD021782800D3
:1077F000FFF7B8FF0134F7E721782800FFF7B2FF61
:107800000134EDE72800FFF7D9FF0120FEBDF7B5F1
:10781000009308AB160004CB0C0005001F78019202
:10782000FFF7C3FFA619B4420BD1009C019BE618D9
:10783000B4420CD039002800FFF794FF20700134C7
:10784000F6E721782800FFF78DFF0134EBE72800E9
:10785000FFF7B4FF0120FEBDF0B500294ADB0C257F
:10786000445F8C4246DD002A44DB0E25445F94428F
:1078700040DD847E022C1FD0032C26D0012C04D1A5
:10788000D2430489A4180A0021B2012B23D0022B71
:1078900031D0002B2ED10724D31723400826855F33
:1078A0009B18DB106B4359180123224093401A00A8
:1078B000C06A435C93431CE00489013C611AD443D1
:1078C000428909B2121912B2DFE74489013C641AF5
:1078D000110022B2D9E70725D4172C40A4182A405A
:1078E00093400827C65FE4107443C06A6118425C85
:1078F00013434354F0BD0724D31723400826855F64
:107900009B18DB106B435918012322409340C06A37
:10791000425C5340EDE7000070B500261D0004AB4B
:1079200004009E57FEF722FE0022104B62620833CD
:107930002360954200D10E4D2300FF213333A56211
:10794000E26219702100012336315B42A3860B707D
:10795000230037331E70059B2000A365069BE3655B
:10796000044B6366230068331A8070BDC868010049
:107970008C6A002000093D0010B50400C06A002890
:1079800001D008F0F9FC200010BDF8B50400806AB1
:107990000D00002812D0230030331978FEF73CFB8D
:1079A000A06A002103681B689847A06A2900036841
:1079B0001B689847A06AFEF7A5FBF8BD226C216DF5
:1079C0001368606A8B431360002803D02900FDF719
:1079D00027FFF2E708208026E36BA26BA16C1768F3
:1079E0002E420ED0394311601968E76C01383943D3
:1079F00019601968E76C7608B94319600028EDD161
:107A0000DBE78F431760EFE770B50400806A0D0075
:107A1000002810D0A16DFEF7F1FA29004D1EA941F2
:107A20002000A631FFF7B1FFA06A002810D0E16D59
:107A3000FEF7E4FA70BD606A002803D0616EA26EA2
:107A4000FDF7BEFE626C616D13688B431360E4E763
:107A5000626C616D1368606A0B4313600028E9D0A3
:107A6000FDF7CAFEE6E7F7B50400806A8B180D0043
:107A70000193002828D0270030373978FEF7CCFA58
:107A8000A06A0021036801261B689847019BA06A31
:107A90009D4216D0FE2E0BD9FEF734FB3978A06A32
:107AA000FEF7BAFAA06A0021036801261B6898470E
:107AB000A06A2978036801361B689847B6B2013579
:107AC000E4E7FEF71FFBF7BD226C216D13688B43C3
:107AD0001360019BAB42F6D02B78606A00930028BC
